{
  "_format": "hh-sol-artifact-1",
  "contractName": "CustomToken",
  "sourceName": "src/contracts/CustomToken.sol",
  "abi": [
    {
      "inputs": [
        {
          "internalType": "string",
          "name": "name",
          "type": "string"
        },
        {
          "internalType": "string",
          "name": "symbol",
          "type": "string"
        },
        {
          "internalType": "uint256",
          "name": "initialSupply",
          "type": "uint256"
        },
        {
          "internalType": "uint256",
          "name": "_taxPercentage",
          "type": "uint256"
        },
        {
          "internalType": "uint256",
          "name": "_burnPercentage",
          "type": "uint256"
        },
        {
          "internalType": "address",
          "name": "_taxWallet",
          "type": "address"
        }
      ],
      "stateMutability": "nonpayable",
      "type": "constructor"
    },
    {
      "inputs": [
        {
          "internalType": "address",
          "name": "spender",
          "type": "address"
        },
        {
          "internalType": "uint256",
          "name": "allowance",
          "type": "uint256"
        },
        {
          "internalType": "uint256",
          "name": "needed",
          "type": "uint256"
        }
      ],
      "name": "ERC20InsufficientAllowance",
      "type": "error"
    },
    {
      "inputs": [
        {
          "internalType": "address",
          "name": "sender",
          "type": "address"
        },
        {
          "internalType": "uint256",
          "name": "balance",
          "type": "uint256"
        },
        {
          "internalType": "uint256",
          "name": "needed",
          "type": "uint256"
        }
      ],
      "name": "ERC20InsufficientBalance",
      "type": "error"
    },
    {
      "inputs": [
        {
          "internalType": "address",
          "name": "approver",
          "type": "address"
        }
      ],
      "name": "ERC20InvalidApprover",
      "type": "error"
    },
    {
      "inputs": [
        {
          "internalType": "address",
          "name": "receiver",
          "type": "address"
        }
      ],
      "name": "ERC20InvalidReceiver",
      "type": "error"
    },
    {
      "inputs": [
        {
          "internalType": "address",
          "name": "sender",
          "type": "address"
        }
      ],
      "name": "ERC20InvalidSender",
      "type": "error"
    },
    {
      "inputs": [
        {
          "internalType": "address",
          "name": "spender",
          "type": "address"
        }
      ],
      "name": "ERC20InvalidSpender",
      "type": "error"
    },
    {
      "inputs": [
        {
          "internalType": "address",
          "name": "owner",
          "type": "address"
        }
      ],
      "name": "OwnableInvalidOwner",
      "type": "error"
    },
    {
      "inputs": [
        {
          "internalType": "address",
          "name": "account",
          "type": "address"
        }
      ],
      "name": "OwnableUnauthorizedAccount",
      "type": "error"
    },
    {
      "anonymous": false,
      "inputs": [
        {
          "indexed": true,
          "internalType": "address",
          "name": "owner",
          "type": "address"
        },
        {
          "indexed": true,
          "internalType": "address",
          "name": "spender",
          "type": "address"
        },
        {
          "indexed": false,
          "internalType": "uint256",
          "name": "value",
          "type": "uint256"
        }
      ],
      "name": "Approval",
      "type": "event"
    },
    {
      "anonymous": false,
      "inputs": [
        {
          "indexed": true,
          "internalType": "address",
          "name": "previousOwner",
          "type": "address"
        },
        {
          "indexed": true,
          "internalType": "address",
          "name": "newOwner",
          "type": "address"
        }
      ],
      "name": "OwnershipTransferred",
      "type": "event"
    },
    {
      "anonymous": false,
      "inputs": [
        {
          "indexed": true,
          "internalType": "address",
          "name": "from",
          "type": "address"
        },
        {
          "indexed": true,
          "internalType": "address",
          "name": "to",
          "type": "address"
        },
        {
          "indexed": false,
          "internalType": "uint256",
          "name": "taxAmount",
          "type": "uint256"
        }
      ],
      "name": "TaxCollected",
      "type": "event"
    },
    {
      "anonymous": false,
      "inputs": [
        {
          "indexed": true,
          "internalType": "address",
          "name": "from",
          "type": "address"
        },
        {
          "indexed": false,
          "internalType": "uint256",
          "name": "burnAmount",
          "type": "uint256"
        }
      ],
      "name": "TokensBurned",
      "type": "event"
    },
    {
      "anonymous": false,
      "inputs": [
        {
          "indexed": true,
          "internalType": "address",
          "name": "from",
          "type": "address"
        },
        {
          "indexed": true,
          "internalType": "address",
          "name": "to",
          "type": "address"
        },
        {
          "indexed": false,
          "internalType": "uint256",
          "name": "value",
          "type": "uint256"
        }
      ],
      "name": "Transfer",
      "type": "event"
    },
    {
      "inputs": [
        {
          "internalType": "address",
          "name": "owner",
          "type": "address"
        },
        {
          "internalType": "address",
          "name": "spender",
          "type": "address"
        }
      ],
      "name": "allowance",
      "outputs": [
        {
          "internalType": "uint256",
          "name": "",
          "type": "uint256"
        }
      ],
      "stateMutability": "view",
      "type": "function"
    },
    {
      "inputs": [
        {
          "internalType": "address",
          "name": "spender",
          "type": "address"
        },
        {
          "internalType": "uint256",
          "name": "value",
          "type": "uint256"
        }
      ],
      "name": "approve",
      "outputs": [
        {
          "internalType": "bool",
          "name": "",
          "type": "bool"
        }
      ],
      "stateMutability": "nonpayable",
      "type": "function"
    },
    {
      "inputs": [
        {
          "internalType": "address",
          "name": "account",
          "type": "address"
        }
      ],
      "name": "balanceOf",
      "outputs": [
        {
          "internalType": "uint256",
          "name": "",
          "type": "uint256"
        }
      ],
      "stateMutability": "view",
      "type": "function"
    },
    {
      "inputs": [],
      "name": "burnPercentage",
      "outputs": [
        {
          "internalType": "uint256",
          "name": "",
          "type": "uint256"
        }
      ],
      "stateMutability": "view",
      "type": "function"
    },
    {
      "inputs": [],
      "name": "decimals",
      "outputs": [
        {
          "internalType": "uint8",
          "name": "",
          "type": "uint8"
        }
      ],
      "stateMutability": "view",
      "type": "function"
    },
    {
      "inputs": [
        {
          "internalType": "address",
          "name": "account",
          "type": "address"
        },
        {
          "internalType": "bool",
          "name": "excluded",
          "type": "bool"
        }
      ],
      "name": "excludeFromTax",
      "outputs": [],
      "stateMutability": "nonpayable",
      "type": "function"
    },
    {
      "inputs": [
        {
          "internalType": "address",
          "name": "",
          "type": "address"
        }
      ],
      "name": "excludedFromTax",
      "outputs": [
        {
          "internalType": "bool",
          "name": "",
          "type": "bool"
        }
      ],
      "stateMutability": "view",
      "type": "function"
    },
    {
      "inputs": [],
      "name": "name",
      "outputs": [
        {
          "internalType": "string",
          "name": "",
          "type": "string"
        }
      ],
      "stateMutability": "view",
      "type": "function"
    },
    {
      "inputs": [],
      "name": "owner",
      "outputs": [
        {
          "internalType": "address",
          "name": "",
          "type": "address"
        }
      ],
      "stateMutability": "view",
      "type": "function"
    },
    {
      "inputs": [],
      "name": "renounceOwnership",
      "outputs": [],
      "stateMutability": "nonpayable",
      "type": "function"
    },
    {
      "inputs": [
        {
          "internalType": "uint256",
          "name": "_burnPercentage",
          "type": "uint256"
        }
      ],
      "name": "setBurnPercentage",
      "outputs": [],
      "stateMutability": "nonpayable",
      "type": "function"
    },
    {
      "inputs": [
        {
          "internalType": "uint256",
          "name": "_taxPercentage",
          "type": "uint256"
        }
      ],
      "name": "setTaxPercentage",
      "outputs": [],
      "stateMutability": "nonpayable",
      "type": "function"
    },
    {
      "inputs": [
        {
          "internalType": "address",
          "name": "_taxWallet",
          "type": "address"
        }
      ],
      "name": "setTaxWallet",
      "outputs": [],
      "stateMutability": "nonpayable",
      "type": "function"
    },
    {
      "inputs": [],
      "name": "symbol",
      "outputs": [
        {
          "internalType": "string",
          "name": "",
          "type": "string"
        }
      ],
      "stateMutability": "view",
      "type": "function"
    },
    {
      "inputs": [],
      "name": "taxPercentage",
      "outputs": [
        {
          "internalType": "uint256",
          "name": "",
          "type": "uint256"
        }
      ],
      "stateMutability": "view",
      "type": "function"
    },
    {
      "inputs": [],
      "name": "taxWallet",
      "outputs": [
        {
          "internalType": "address",
          "name": "",
          "type": "address"
        }
      ],
      "stateMutability": "view",
      "type": "function"
    },
    {
      "inputs": [],
      "name": "totalSupply",
      "outputs": [
        {
          "internalType": "uint256",
          "name": "",
          "type": "uint256"
        }
      ],
      "stateMutability": "view",
      "type": "function"
    },
    {
      "inputs": [
        {
          "internalType": "address",
          "name": "to",
          "type": "address"
        },
        {
          "internalType": "uint256",
          "name": "value",
          "type": "uint256"
        }
      ],
      "name": "transfer",
      "outputs": [
        {
          "internalType": "bool",
          "name": "",
          "type": "bool"
        }
      ],
      "stateMutability": "nonpayable",
      "type": "function"
    },
    {
      "inputs": [
        {
          "internalType": "address",
          "name": "from",
          "type": "address"
        },
        {
          "internalType": "address",
          "name": "to",
          "type": "address"
        },
        {
          "internalType": "uint256",
          "name": "value",
          "type": "uint256"
        }
      ],
      "name": "transferFrom",
      "outputs": [
        {
          "internalType": "bool",
          "name": "",
          "type": "bool"
        }
      ],
      "stateMutability": "nonpayable",
      "type": "function"
    },
    {
      "inputs": [
        {
          "internalType": "address",
          "name": "newOwner",
          "type": "address"
        }
      ],
      "name": "transferOwnership",
      "outputs": [],
      "stateMutability": "nonpayable",
      "type": "function"
    }
  ],
  "bytecode": "0x60806040523480156200001157600080fd5b50604051620016d7380380620016d78339810160408190526200003491620005d1565b338686600362000045838262000709565b50600462000054828262000709565b5050506001600160a01b0381166200008757604051631e4fbdf760e01b8152600060048201526024015b60405180910390fd5b620000928162000186565b506019620000a18385620007eb565b1115620000f15760405162461bcd60e51b815260206004820152601c60248201527f546f74616c20666565732063616e6e6f7420657863656564203235250000000060448201526064016200007e565b60068390556007829055600880546001600160a01b0319166001600160a01b038316179055620001433362000124601290565b6200013190600a62000904565b6200013d90876200091c565b620001d8565b336000908152600960205260408082208054600160ff1991821681179092556001600160a01b0394909416835291208054909216179055506200096f9350505050565b600580546001600160a01b038381166001600160a01b0319831681179093556040519116919082907f8be0079c531659141344cd1fd0a4f28419497f9722a3daafe3b4186f6b6457e090600090a35050565b6001600160a01b038216620002045760405163ec442f0560e01b8152600060048201526024016200007e565b620002126000838362000216565b5050565b6000811180156200022f57506001600160a01b03831615155b80156200024457506001600160a01b03821615155b80156200026a57506001600160a01b03831660009081526009602052604090205460ff16155b80156200029057506001600160a01b03821660009081526009602052604090205460ff16155b15620003c7576000606460065483620002aa91906200091c565b620002b6919062000936565b90506000606460075484620002cc91906200091c565b620002d8919062000936565b9050600081620002e9848662000959565b620002f5919062000959565b600854909150620003129087906001600160a01b031685620003d9565b6200032086600084620003d9565b6200032d868683620003d9565b846001600160a01b0316866001600160a01b03167f5d37fd68fe66745a199f8c603e00ae02183f4aabb8ec0089589b0b40c4ead5e1856040516200037391815260200190565b60405180910390a3856001600160a01b03167ffd38818f5291bf0bb3a2a48aadc06ba8757865d1dabd804585338aab3009dcb683604051620003b791815260200190565b60405180910390a2505050505050565b620003d4838383620003d9565b505050565b6001600160a01b03831662000408578060026000828254620003fc9190620007eb565b909155506200047c9050565b6001600160a01b038316600090815260208190526040902054818110156200045d5760405163391434e360e21b81526001600160a01b038516600482015260248101829052604481018390526064016200007e565b6001600160a01b03841660009081526020819052604090209082900390555b6001600160a01b0382166200049a57600280548290039055620004b9565b6001600160a01b03821660009081526020819052604090208054820190555b816001600160a01b0316836001600160a01b03167fddf252ad1be2c89b69c2b068fc378daa952ba7f163c4a11628f55a4df523b3ef83604051620004ff91815260200190565b60405180910390a3505050565b634e487b7160e01b600052604160045260246000fd5b600082601f8301126200053457600080fd5b81516001600160401b03808211156200055157620005516200050c565b604051601f8301601f19908116603f011681019082821181831017156200057c576200057c6200050c565b816040528381526020925086838588010111156200059957600080fd5b600091505b83821015620005bd57858201830151818301840152908201906200059e565b600093810190920192909252949350505050565b60008060008060008060c08789031215620005eb57600080fd5b86516001600160401b03808211156200060357600080fd5b620006118a838b0162000522565b975060208901519150808211156200062857600080fd5b506200063789828a0162000522565b604089015160608a015160808b015160a08c01519399509197509550935090506001600160a01b03811681146200066d57600080fd5b809150509295509295509295565b600181811c908216806200069057607f821691505b602082108103620006b157634e487b7160e01b600052602260045260246000fd5b50919050565b601f821115620003d457600081815260208120601f850160051c81016020861015620006e05750805b601f850160051c820191505b818110156200070157828155600101620006ec565b505050505050565b81516001600160401b038111156200072557620007256200050c565b6200073d816200073684546200067b565b84620006b7565b602080601f8311600181146200077557600084156200075c5750858301515b600019600386901b1c1916600185901b17855562000701565b600085815260208120601f198616915b82811015620007a65788860151825594840194600190910190840162000785565b5085821015620007c55787850151600019600388901b60f8161c191681555b5050505050600190811b01905550565b634e487b7160e01b600052601160045260246000fd5b80820180821115620008015762000801620007d5565b92915050565b600181815b80851115620008485781600019048211156200082c576200082c620007d5565b808516156200083a57918102915b93841c93908002906200080c565b509250929050565b600082620008615750600162000801565b81620008705750600062000801565b81600181146200088957600281146200089457620008b4565b600191505062000801565b60ff841115620008a857620008a8620007d5565b50506001821b62000801565b5060208310610133831016604e8410600b8410161715620008d9575081810a62000801565b620008e5838362000807565b8060001904821115620008fc57620008fc620007d5565b029392505050565b60006200091560ff84168362000850565b9392505050565b8082028115828204841417620008015762000801620007d5565b6000826200095457634e487b7160e01b600052601260045260246000fd5b500490565b81810381811115620008015762000801620007d5565b610d58806200097f6000396000f3fe608060405234801561001057600080fd5b506004361061012c5760003560e01c806395d89b41116100ad578063c6a3064711610071578063c6a3064714610282578063dd62ed3e14610295578063ea414b28146102ce578063f01f20df146102e1578063f2fde38b146102ea57600080fd5b806395d89b4114610228578063989763ef14610230578063a9059cbb14610253578063ae7b6d1614610266578063c3f0d3271461026f57600080fd5b8063313ce567116100f4578063313ce567146101c2578063699abb3c146101d157806370a08231146101e6578063715018a61461020f5780638da5cb5b1461021757600080fd5b806306fdde0314610131578063095ea7b31461014f57806318160ddd1461017257806323b872dd146101845780632dc0562d14610197575b600080fd5b6101396102fd565b6040516101469190610af9565b60405180910390f35b61016261015d366004610b63565b61038f565b6040519015158152602001610146565b6002545b604051908152602001610146565b610162610192366004610b8d565b6103a9565b6008546101aa906001600160a01b031681565b6040516001600160a01b039091168152602001610146565b60405160128152602001610146565b6101e46101df366004610bc9565b6103cd565b005b6101766101f4366004610be2565b6001600160a01b031660009081526020819052604090205490565b6101e461043d565b6005546001600160a01b03166101aa565b610139610451565b61016261023e366004610be2565b60096020526000908152604090205460ff1681565b610162610261366004610b63565b610460565b61017660065481565b6101e461027d366004610bc9565b61046e565b6101e4610290366004610c04565b6104d9565b6101766102a3366004610c40565b6001600160a01b03918216600090815260016020908152604080832093909416825291909152205490565b6101e46102dc366004610be2565b61050c565b61017660075481565b6101e46102f8366004610be2565b6105ae565b60606003805461030c90610c73565b80601f016020809104026020016040519081016040528092919081815260200182805461033890610c73565b80156103855780601f1061035a57610100808354040283529160200191610385565b820191906000526020600020905b81548152906001019060200180831161036857829003601f168201915b5050505050905090565b60003361039d8185856105ec565b60019150505b92915050565b6000336103b78582856105fe565b6103c285858561067d565b506001949350505050565b6103d56106dc565b6019600754826103e59190610cc3565b11156104385760405162461bcd60e51b815260206004820152601c60248201527f546f74616c20666565732063616e6e6f7420657863656564203235250000000060448201526064015b60405180910390fd5b600655565b6104456106dc565b61044f6000610709565b565b60606004805461030c90610c73565b60003361039d81858561067d565b6104766106dc565b6019816006546104869190610cc3565b11156104d45760405162461bcd60e51b815260206004820152601c60248201527f546f74616c20666565732063616e6e6f74206578636565642032352500000000604482015260640161042f565b600755565b6104e16106dc565b6001600160a01b03919091166000908152600960205260409020805460ff1916911515919091179055565b6105146106dc565b6001600160a01b0381166105745760405162461bcd60e51b815260206004820152602160248201527f5461782077616c6c65742063616e6e6f74206265207a65726f206164647265736044820152607360f81b606482015260840161042f565b600880546001600160a01b039092166001600160a01b0319909216821790556000908152600960205260409020805460ff19166001179055565b6105b66106dc565b6001600160a01b0381166105e057604051631e4fbdf760e01b81526000600482015260240161042f565b6105e981610709565b50565b6105f9838383600161075b565b505050565b6001600160a01b03838116600090815260016020908152604080832093861683529290522054600019811015610677578181101561066857604051637dc7a0d960e11b81526001600160a01b0384166004820152602481018290526044810183905260640161042f565b6106778484848403600061075b565b50505050565b6001600160a01b0383166106a757604051634b637e8f60e11b81526000600482015260240161042f565b6001600160a01b0382166106d15760405163ec442f0560e01b81526000600482015260240161042f565b6105f9838383610830565b6005546001600160a01b0316331461044f5760405163118cdaa760e01b815233600482015260240161042f565b600580546001600160a01b038381166001600160a01b0319831681179093556040519116919082907f8be0079c531659141344cd1fd0a4f28419497f9722a3daafe3b4186f6b6457e090600090a35050565b6001600160a01b0384166107855760405163e602df0560e01b81526000600482015260240161042f565b6001600160a01b0383166107af57604051634a1406b160e11b81526000600482015260240161042f565b6001600160a01b038085166000908152600160209081526040808320938716835292905220829055801561067757826001600160a01b0316846001600160a01b03167f8c5be1e5ebec7d5bd14f71427d1e84f3dd0314c0f7b2291e5b200ac8c7c3b9258460405161082291815260200190565b60405180910390a350505050565b60008111801561084857506001600160a01b03831615155b801561085c57506001600160a01b03821615155b801561088157506001600160a01b03831660009081526009602052604090205460ff16155b80156108a657506001600160a01b03821660009081526009602052604090205460ff16155b156109c85760006064600654836108bd9190610cd6565b6108c79190610ced565b905060006064600754846108db9190610cd6565b6108e59190610ced565b90506000816108f48486610d0f565b6108fe9190610d0f565b6008549091506109199087906001600160a01b0316856109cf565b610925866000846109cf565b6109308686836109cf565b846001600160a01b0316866001600160a01b03167f5d37fd68fe66745a199f8c603e00ae02183f4aabb8ec0089589b0b40c4ead5e18560405161097591815260200190565b60405180910390a3856001600160a01b03167ffd38818f5291bf0bb3a2a48aadc06ba8757865d1dabd804585338aab3009dcb6836040516109b891815260200190565b60405180910390a2505050505050565b6105f98383835b6001600160a01b0383166109fa5780600260008282546109ef9190610cc3565b90915550610a6c9050565b6001600160a01b03831660009081526020819052604090205481811015610a4d5760405163391434e360e21b81526001600160a01b0385166004820152602481018290526044810183905260640161042f565b6001600160a01b03841660009081526020819052604090209082900390555b6001600160a01b038216610a8857600280548290039055610aa7565b6001600160a01b03821660009081526020819052604090208054820190555b816001600160a01b0316836001600160a01b03167fddf252ad1be2c89b69c2b068fc378daa952ba7f163c4a11628f55a4df523b3ef83604051610aec91815260200190565b60405180910390a3505050565b600060208083528351808285015260005b81811015610b2657858101830151858201604001528201610b0a565b506000604082860101526040601f19601f8301168501019250505092915050565b80356001600160a01b0381168114610b5e57600080fd5b919050565b60008060408385031215610b7657600080fd5b610b7f83610b47565b946020939093013593505050565b600080600060608486031215610ba257600080fd5b610bab84610b47565b9250610bb960208501610b47565b9150604084013590509250925092565b600060208284031215610bdb57600080fd5b5035919050565b600060208284031215610bf457600080fd5b610bfd82610b47565b9392505050565b60008060408385031215610c1757600080fd5b610c2083610b47565b915060208301358015158114610c3557600080fd5b809150509250929050565b60008060408385031215610c5357600080fd5b610c5c83610b47565b9150610c6a60208401610b47565b90509250929050565b600181811c90821680610c8757607f821691505b602082108103610ca757634e487b7160e01b600052602260045260246000fd5b50919050565b634e487b7160e01b600052601160045260246000fd5b808201808211156103a3576103a3610cad565b80820281158282048414176103a3576103a3610cad565b600082610d0a57634e487b7160e01b600052601260045260246000fd5b500490565b818103818111156103a3576103a3610cad56fea2646970667358221220e83cb1c6d5694a7d2da9f87c3770f1f175f0105fd3287410c28050416c4079e964736f6c63430008140033",
  "linkReferences": {},
  "deployedLinkReferences": {}
}